AP209224999711225450093357 000001134   9335720190307HARMONY             IL PREZZO DELL'INGAN120003509999999999 11225450093357977112254500710000000000000000U977112254500793357
AP209224999711225450093356 000001134   9335620190307HARMONY             DI NUOVO TRA LE MIE 120003509999999999 11225450093356977112254500710000000000000000U977112254500793356
AP209224999711225450093355 000001134   9335520190307HARMONY             ASSUNTA DAL NEMICO  120003509999999999 11225450093355977112254500710000000000000000U977112254500793355
AP209224999711225450093354 000001134   9335420190307HARMONY             L'ULTIMA CONQUISTA D120003509999999999 11225450093354977112254500710000000000000000U977112254500793354
AP209224999711225450093353 000001134   9335320190307HARMONY             SOTTO LE LUCI DELLA 120003509999999999 11225450093353977112254500710000000000000000U977112254500793353
AP209224999711225450093352 000001134   9335220190307HARMONY             TENTAZIONE PROIBITA 120003509999999999 11225450093352977112254500710000000000000000U977112254500793352
AP209224999711225450093351 000001134   9335120190307HARMONY             RESA DEI CONTI CON I120003509999999999 11225450093351977112254500710000000000000000U977112254500793351
AP209224999711225450093350 000001134   9335020190307HARMONY             L'ISOLA DEL MILIONAR120003509999999999 11225450093350977112254500710000000000000000U977112254500793350
AP209224999100125370091033 000000353   9103320190307DOMUS                                   120010009999999999 00125370091033977001253700910000000000000000U977001253700991033
AP209224999178013080090011 000002106   9001120190307$WOCHE DER FRAU                         070001409999999999 78013080090011             10000000000000000U419506070099411   
AP209224999511221765490307 000003715   9030720190307STAMPA                                  010001509999999999 11221765490307977112217600320000000000000000U977112217600390307
AP209224999711286160090307 000003734   9030720190307FOGLIO                                  010001809999999999 11286160090307977112861600820000000000000000U977112861600890307
AP209224999711206020090307 000003742   9030720190307AVVENIRE                                010001509999999999 11206020090307977112060200920000000000000000U977112060200990307
AP209224999711206020090306 000003742   9030620190306AVVENIRE                                010001509999999999 11206020090306977112060200920000000000000000U977112060200990306
AP209224998700414440190307 000003753   9030720190307TUTTOSPORT                              010001509999999999 00414440190307977004144400220000000000000000U977004144400290307
AP209224999511205064290307 000003729   9030720190307GAZZETTA SPORT                          010001509999999999 11205064290307977112050600020000000000000000U977112050600090307
AP209224902100000350090307 000003739   9030720190307ITALIA OGGI                             010002009999999999 00000350090307977112060600720000000000000000U977112060600790307
AP209224999711248830090307 000003749   9030720190307GIORNALE            IL GIORNALE NAZIONAL010001509999999999 11248830090307977112488300820000000000000000U977112488300890307
AP209224999111248540090233 000001424   9023320190307ELETTRONICA IN                          120006009999999999 11248540090233977112485400810000000000000000U977112485400890233
AP209224999511204400090003 000000323   9000320190307ELLE DECOR                              120004509999999999 11204400090003977112044000710000000000000000U977112044000790003
AP209224999711223650091903 000000338   9190320190307INTERNI                                 120008009999999999 11223650091903977112236500110000000000000000U977112236500191903
AP209224999511242270090376 000000788   9037620190307WOLVERINE           WOLVERINE N. 50 / 37120003509999999999 11242270090376977112422700010000000000000000U977112422700090376
AP209224985069110400093798 000009696   9379820190307$FRANCE FOOTBALL                        070003809999999999 69110400037980378041550350710000000000000000U378041550350737980
AP209224985069102100091573 000009716   9157320190307$HELLO UK                               070004009999999999 69102100091573             10000000000000000U977021438813310   
AP209224985069030500090307 000001685   9030720190307$BILD                                   010001409999999999 69030500040010419087550090620000000000000000U419087550090640010
AP209224999178012600090004 000001224   9000420190307$VOGUE  TEDESCO                         120008509999999999 78012600090004             10760000000000000U419093020700904   
AP209224999178015410090011 000001257   9001120190307$NEUE WELT                              070002509999999999 78015410090011             10000000000000000U419071110179311   
AP209224999178012000090011 000001269   9001120190307$FREIZEIT REVUE                         070002509999999999 78012000090011             10000000000000000U419030340190411   
AP209224999511230370090102 000001175   9010220190307ENIGMISTICA IN SPECI                    130002809999999999 11230370090102977112303700610000000000000000U977112303700690102
AP209224999517245060090043 000002606   9004320190307CRUCIVERBA 250                          140002309999999999 17245060090043977172450600010000000000000000U977172450600090043
AP209224999511204983190307 000010596   9030720190307CORR.SERA VE                            010001509999999999 11204983190307977112049800820000000000000000U977112049800890307
AP209224993515941320390307 000010599   9030720190307NUOVA VENEZIA                           010001009999999999 15941320390307977159413290320000000000000000U977159413290390307
AP209224999178012110090011 000003062   9001120190307$GLUCKS REVUE                           070001909999999999 78012110090011             10000000000000000U419190360140411   
AP209224973909094650090307 000003776   9030720190307GIORNO                                  010001409999999999 09094650090307977112421140520000000000000000U977112421140590307
AP209224902100000370090307 000003778   9030720190307MERCATI FINANZIARI                      010002009999999999 00000370090307977159467700820000000000000000U977159467700890307
AP209224999503917864290307 000003782   9030720190307SOLE 24 ORE                             010002009999999999 03917864290307977039178641820000000000000000U977039178641890307
AP209224999515925440090105 000003090   9010520190307FANTASTICI PUZZLE                       130001909999999999 15925440090105977159254400510000000000000000U977159254400590105
AP209224999511204380090011 000000800   9001120190307DOMENICA QUIZ                           070001609999999999 11204380090011977112043800410000000000000000U977112043800490011
AP209224999111255220094537 000000801   9453720190307SETTIMANA ENIGMISTIC                    070001609999999999 11255220094537977112552200510000000000000000U977112552200594537
AP209224999111215340090319 000000476   9031920190307GLAMOUR POCKET                          120001509999999999 11215340090319977112153400210000000000000000U977112153400290319
AP209224999511255940090118 000001749   9011820190307ENIGMISTICA JUNIOR                      130002509999999999 11255940090118977112559400210000000000000000U977112559400290118
AP209224985069031050090307 000009935   9030720190307$DIE WELT                               010003709999999999 69031050090307419071090270420000000000000000U419071090270490307
AP209224985069031010090307 000009936   9030720190307$FRANKFURTER ALLGEM.                    010003709999999999 69031010040010419029540290320000000000000000U419029540290340010
AP209224985069012010090307 000009938   9030720190307$LE MONDE                               010003309999999999 69012010090307             20000000000000000U977039520334810   
AP209224985069012010090306 000009938   9030620190306$LE MONDE                               010003309999999999 69012010003060378001470280620000000000000000U378001470280603060
AP209224985069012010090305 000009938   9030520190305$LE MONDE                               010003309999999999 69012010003050378001470280620000000000000000U378001470280603050
AP209224985069031710090306 000009939   9030620190307$SALZBURGER NACHRIC.                    010003209999999999 69031710090306             20000000000000000U901562003183010   
AP209224985069031710090304 000009939   9030420190305$SALZBURGER NACHRIC.                    010003209999999999 69031710090304             20000000000000000U901562003191510   
AP209224908509000060019010 000000003   1901020190307VITA CATTOLICA                          070001509999999999 09000060019010977112093990710000000000000000U977112093990719010
AP209224999511204390090009 000000020   9000920190307ELLE SETTIMANALE    PAMELA PRATI SI SPOS070001509999999999 11204390090009977112043900110000000000000000U977112043900190009
AP209224999511204390090008 000000020   9000820190228ELLE SETTIMANALE    CON VERY ELLE 31    070002009999999999 11204390090008977112043900110000000000000000U977112043900190008
AP209224999178012050090007 000001285   9000720190307$FREUNDIN                               090004009999999999 78012050090007             10000000000000000U419038750300607   
AP209224999511229530090201 000000849   9020120190307ARTE ENIGMISTICA                        130001609999999999 11229530090201977112295300010000000000000000U977112295300090201
AP209224999115937580690110 000003358   9011020190307PROFILO                                 130003999999999999 15937580690110977159375806710000000000000000U977159375806790110
AP209224999718874723390164 000025744   9016420190307BATMAN MAGAZINE                         120003959999999999 18874723390164977188747233410500000000000000U977188747233490164
AP209224999511286230090083 000002308   9008320190307UNIVERSO ENIGMISTICO                    140003509999999999 11286230090083977112862300610000000000000000U977112862300690083
AP209224999511264050090257 000001851   9025720190307PICCOLI PUZZLE                          120001309999999999 11264050090257977112640500010000000000000000U977112640500090257
AP209224999100271690090003 000000583   9000320190307MOTOCICLISMO                            120005009999999999 00271690090003977002716900410000000000000000U977002716900490003
AP209224999178012160090011 000003559   9001120190307$LISA                                   070002009999999999 78012160090011             10000000000000000U419093540149511   
AP209224999518247810090051 000004195   9005120190307AUTODEF.STAGIONALI                      140002309999999999 18247810090051977182478100010000000000000000U977182478100090051
AP209224999511241060090093 000001513   9009320190307STAGIONE PUZZLE                         140002709999999999 11241060090093977112410600810000000000000000U977112410600890093
AP209224999711221980090336 000000137   9033620190307PC PROFESSIONALE                        120006909999999999 11221980090336977112219800510000000000000000U977112219800590336
AP209224999111244230090338 000000177   9033820190307TUTTO TRENO                             120008509999999999 11244230090338977112442300610000000000000000U977112442300690338
AP209224999500043160090539 000000389   9053920190307ART ET DECORATION                       120005709999999999 00043160090539977000431600110000000000000000U977000431600190539
AP209224999178003260090011 000002477   9001120190307$DIE NEUE FRAU                          070001409999999999 78003260090011             10000000000000000U419488560099111   
AP209224909100000010090307 000009634   9030720190307ARENA QUOTIDIANO                        010001409999999999 00000010090307977159116700720000000000000000U977159116700790307
AP209224909100000020090307 000009635   9030720190307GIORNALE VICENZA                        010001409999999999 00000020090307977159116900120000000000000000U977159116900190307
AP209224985069170710090010 000009642   9001020190307$ANGORA                                 070001609999999999 69170710090010             10000000000000000U419458500140110   
AP209224985069230040090007 000009647   9000720190307$AUTO STRASSENVERKE.                    100002609999999999 69230040090007             10000000000000000U419111610200207   
AP209224999117236670090010 000004643   9001020190307VANITY FAIR         ELISA               070001909999999999 17236670090010977172366700910000000000000000U977172366700990010
AP209224999511230210090210 000001070   9021020190307PUZZLE DIVERTENTI                       130001409999999999 11230210090210977112302100510000000000000000U977112302100590210
AP209224999517245680090101 000002011   9010120190307PUZZLE STAGIONI     PUZZLE PRIMAVERA    140002009999999999 17245680090101977172456800810000000000000000U977172456800890101
AP209224999511268170090132 000001872   9013220190307PICCOLI CRUCIVERBA                      130001009999999999 11268170090132977112681700110000000000000000U977112681700190132
AP209224999111248340090455 000000274   9045520190307AIRONE                                  120002009999999999 11248340090455977112483400010000000000000000U977112483400090455
AP209224988311206044290307 000003699   9030720190307GAZZETTINO PD                           010001209999999999 11206044290307977112060442320000000000000000U977112060442390307
AP209224988311206044390307 000003702   9030720190307GAZZETTINO TV                           010001209999999999 11206044390307977112060443020000000000000000U977112060443090307
AP209224985069230070090007 000001572   9000720190307$FUER SIE                               100003959999999999 69230070090007             10000000000000000U419030810295007   
AP209224999115930210090003 000000118   9000320190307TORRE & CAVALLO                         120006009999999999 15930210090003977159302100010000000000000000U977159302100090003
AP209224902600026710090307 000005241   9030720190307SCUOLE SOLE 24 ORE                      010000009999999999 000267100                  20000000000000000U                  
AP209224999515927730090102 000004373   9010220190307MESE PUZZLE                             140001909999999999 15927730090102977159277300910000000000000000U977159277300990102
AP209224999510320040090307 000006977   9030720190307SOLE 24 ORE ABBONATI                    010000009999999999 103200400                  20000000000000000U                  
AP209224999518256700090142 000006878   9014220190307CRITTO SEMPLICI                         130001809999999999 18256700090142977182567000610000000000000000U977182567000690142
AP209224999117200630090096 000003897   9009620190307GRANDI AEREI STORICIP-47 THUNDERBOLT    130009009999999999 17200630090096977172006300210000000000000000U977172006300290096
AP209224999518249470090099 000005018   9009920190307CRUCIVERBA X CAMPI.                     130001509999999999 18249470090099977182494700010000000000000000U977182494700090099
AP209224999518267680090164 000005906   9016420190307TUTTO PAROLE CROCI.                     130001409999999999 18267680090164977182676800910000000000000000U977182676800990164
AP209224999517245480090180 000004788   9018020190307ESP.WINX CLUB       WINX CLUB           120007909999999999 17245480090180977172454800080000000000000000U977172454800090180
AP209224999511294400090078 000005550   9007820190307PAROLE CROC.CRITT.SP                    140002809999999999 11294400090078977112944000810000000000000000U977112944000890078
AP209224999518266160090042 000006324   9004220190307CIVILTA' PUZZLE                         140001909999999999 18266160090042977182661600310000000000000000U977182661600390042
AP209224999517249500090092 000005054   9009220190307ENIGMISTICA MIGLIORE                    130001509999999999 17249500090092977172495000110000000000000000U977172495000190092
AP209224999117226100690193 000004550   9019320190307FOR MEN MAGAZINE GADANELLO PER CELLULARE120003909999999999 17226100690193977172261006810000000000000000U977172261006890193
AP209224999011286673090658 000006170   9065820190307LOTTO MIO GIOVEDI'                      070001809999999999 11286673090658977112866730710000000000000000U977112866730790658
AP209224999518266250090046 000006203   9004620190307SCOPRI PUZZLE                           130002209999999999 18266250090046977182662500510000000000000000U977182662500590046
AP209224999518270590090077 000006785   9007720190307GIOCA COI CRITTOGRA.                    130001309999999999 18270590090077977182705900710000000000000000U977182705900790077
AP209224999722395180090006 000025475   9000620190307+GADGET COLLECTION  12PZ MAGIC COTTON SA130002999999999999 22395180090006977223951800780000000000000000U977223951800790006
AP209224999117226100090193 000004273   9019320190307FOR MEN MAGAZINE                        120002009999999999 17226100090193977172261000610000000000000000U977172261000690193
AP209224999118271230090010 000006251   9001020190307DIVA E DONNA                            070001009999999999 18271230090010977182712300510000000000000000U977182712300590010
AP209224999178004170090004 000005934   9000420190307$BUSSI BAER                             120004509999999999 78004170090004             10000000000000000U419912220370604   
AP209224988311206044790307 000003694   9030720190307GAZZETTINO UD                           010000809999999999 11206044790307977112060447820000000000000000U977112060447890307
AP209224988311206044190307 000003697   9030720190307GAZZETTINO VE                           010001209999999999 11206044190307977112060441620000000000000000U977112060441690307
AP209224902600026700090307 000005240   9030720190307SCUOLE CORR.SERA                        010000009999999999 000267000                  20000000000000000U                  
AP209224999520351360090002 000013951   9000220190307STYLE PICCOLI                           140003509999999999 20351360090002977203513600910000000000000000U977203513600990002
AP209224993500202080090307 000025941   9030720190307INS PICCOLO GRATUITOEVENTI NORDEST      010000009999999999 002020800                  20800000000000000U                  
AP209224920800000010090307 000012340   9030720190307RESTO DEL CARLINO                       010001509999999999 00000010090307977112867441120000000000000000U977112867441190307
AP209224999780080582090122 000014692   9012220190307INS GIORNALE COMP.LISOLDATI. LE FORZE AR070009909999999999 80080582090122977800805820010000000000000000U977800805820090122
AP209224988311206044490307 000011912   9030720190307GAZZETTINO BL                           010001209999999999 11206044490307977112060444720000000000000000U977112060444790307
AP209224999178012400090383 000012551   9038320190307$PROFI RAETSEL                          120002209999999999 78012400090383419813620160910000000000000000U419813620160900383
AP209224999178029280090003 000012729   9000320190307$VON FRAU ZU FRAU                       120001709999999999 78029280090003             10000000000000000U419751200120803   
AP209224985069071150090306 000009549   9030620190307$VESTI                                  010002009999999999 69071150090306419858400180620000000000000000U419858400180690306
AP209224988311206044690307 000010592   9030720190307GAZZETTINO PN                           010001209999999999 11206044690307977112060446120000000000000000U977112060446190307
AP209224985069000150090307 000010699   9030720190307$USA TODAY                              010002509999999999 69000150090307977105174034420000000000000000U977105174034490307
AP209224985069000150090306 000010699   9030620190306$USA TODAY                              010002509999999999 69000150090306             20000000000000000U977105174033710   
AP209224985069013000090306 000010703   9030620190307$LIBERATION                             010002509999999999 69013000090306             20000000000000000U378001350200110   
AP209224985069013000090304 000010703   9030420190305$LIBERATION                             010002509999999999 69013000003040378001350200120000000000000000U378001350200103040
AP209224999122796840090010 000026002   9001020190307SETTIMANALE NUOVO                       070001009999999999 22796840090010977227968400710310000000000000U977227968400790010
AP209224985069000100090307 000009941   9030720190307$THE NEW YORK TIMES                     010003509999999999 69000100040210419858200350520000000000000000U419858200350540210
AP209224985069011000090306 000010001   9030620190307$LE FIGARO                              010003209999999999 69011000090306             20000000000000000U378001080280710   
AP209224985069011000090304 000010001   9030420190305$LE FIGARO                              010003209999999999 69011000003040378001080280720000000000000000U378001080280703040
AP209224902600001930090010 000011250   9001020190307=SETTE+SETTE ABB C.S                    010000009999999999 000019300                  20000000000000000U                  
AP209224999178027820090011 000010574   9001120190307$OK TED.                                070003209999999999 78027820090011             10000000000000000U419770310219611   
AP209224920600000010090307 000011750   9030720190307ADIGE QUOTIDIANO                        010001509999999999 00000010090307977159414400520000000000000000U977159414400590307
AP209224993515929000190307 000011421   9030720190307MATTINO PD                              010001209999999999 15929000190307977159290000920000000000000000U977159290000990307
AP209224993515928980290307 000011424   9030720190307TRIBUNA TV                              010001209999999999 15928980290307977159289850420000000000000000U977159289850490307
AP209224999519739560090065 000011729   9006520190307SOLO PUZZLE X TUTTI                     130001009999999999 19739560090065977197395600710000000000000000U977197395600790065
AP209224999519724130090120 000008575   9012020190307RIDERS                                  120003509999999999 19724130090120977197241300610000000000000000U977197241300690120
AP209224999513920070090010 000008608   9001020190307INS SETTE ABB.C.SERA                    010000009999999999 139200700                  20000000000000000U                  
AP209224999519708880090046 000007879   9004620190307QUALITY PUZZLE                          140001809999999999 19708880090046977197088800410000000000000000U977197088800490046
AP209224999178013070090011 000008057   9001120190307$LEA SETT.                              070002009999999999 78013070090011             10000000000000000U419502370149511   
AP209224985069071180090306 000010281   9030620190307$VESTI LATEINISCH                       010002009999999999 69071180040010419859900200320000000000000000U419859900200340010
AP209224999022403640090026 000025651   9002620190307EDITABLE            2 DVD HARD 2 BOX    130009999999999999 22403640090026977224036400610040000000000000U977224036400690026
AP209224985069130840090011 000025652   9001120190307$FREIZEITWOCHE                          070001509999999999 69130840090011             10300000000000000U419650890099011   
AP209224985069130100090011 000025653   9001120190307$TINA                                   070002309999999999 69130100090011             10300000000000000U419041110159811   
AP209224985069130360090011 000025655   9001120190307$NEUE POST                              070002609999999999 69130360090011             10300000000000000U419082230179211   
AP209224902600001800090307 000008429   9030720190307COR.SERA ABBONATI                       010000009999999999 000018000                  20000000000000000U                  
AP209224902600001820090307 000008431   9030720190307GAZZ.SP.ABBONATI                        010000009999999999 000018200                  20000000000000000U                  
AP209224985069130750090011 000025661   9001120190307$DAS NEUE BLATT                         070002609999999999 69130750090011             10300000000000000U419051340179411   
AP209224985069130610090011 000025662   9001120190307$AUF EINEN BLICK                        070002009999999999 69130610090011             10300000000000000U419037850139411   
AP209224985069130880090011 000025664   9001120190307$LAURA                                  070001909999999999 69130880090011             10300000000000000U419813280130811   
AP209224999178011890090004 000009829   9000420190307$ELLE TEDESCO                           120008509999999999 78011890090004             10000000000000000U419094920700704   
AP209224999178015430090011 000009833   9001120190307$FREIZEITSPASS                          070001409999999999 78015430090011             10000000000000000U419651710099211   
AP209224999178012180090004 000009843   9000420190307$LISA WOHNEN  DEKORI                    120003309999999999 78012180090004             10000000000000000U419456430290104   
AP209224985069031100090307 000009954   9030720190307$SUEDDEUTSCHE ZEITU.                    010003709999999999 69031100041010419065580300520000000000000000U419065580300541010
AP209224985069031100090306 000009954   9030620190306$SUEDDEUTSCHE ZEITU.                    010003709999999999 69031100031010419065580300520000000000000000U419065580300531010
AP209224999120394460890002 000023615   9000220190307ESP.BLU PARTY       SET POLIZIA         130006509999999999 20394460890002977203944608110000000000000000U977203944608190002
AP209224999178036860090004 000023001   9000420190307$DONNA                                  120005209999999999 78036860090004             10000000000000000U419185700390304   
AP209224999118257260090192 000021332   9019220190307MACCHINE TRATTORI                       120004509999999999 18257260090192977182572600010000000000000000U977182572600090192
AP209224999020386330090053 000021062   9005320190307PICCOLE MANI                            130004509999999999 20386330090053977203863300010000000000000000U977203863300090053
AP209224999511205065690025 000021583   9002520190307*GO NAGAI COLL.                         070012999999999999 11205065690025977112050656730000000000000000U977112050656790025
AP209224993515921694690307 000021992   9030720190307PICCOLO TS          +EVENTI NORDEST     010001409999999999 15921694690307977159216946820000000000000000U977159216946890307
AP209224993515921694490307 000021994   9030720190307PICCOLO GO          +EVENTI NORDEST     010001409999999999 15921694490307977159216944420000000000000000U977159216944490307
AP209224993511206084090307 000021995   9030720190307MESS.VENETO UD      +EVENTI NORDEST     010001409999999999 11206084090307977112060840720000000000000000U977112060840790307
AP209224993511206084190307 000021998   9030720190307MESS.VENETO PN      +EVENTI NORDEST     010001109999999999 11206084190307977112060841420000000000000000U977112060841490307
AP209224999520395190090026 000023334   9002620190307AUTODEFINITI FACIL.                     130001509999999999 20395190090026977203951900610000000000000000U977203951900690026
AP209224999520397420090047 000023071   9004720190307QUADERNI DI ALICE   LASAGNE E CANNELLONI130005409999999999 20397420090047977203974200810000000000000000U977203974200890047
AP209224999178033200090002 000019838   9000220190307$LISA WOHNEN UND D.                     140004709999999999 78033200090002             10000000000000000U419176990350602   
AP209224985069132230090011 000026960   9001120190307$CLOSER TEDESCO                         070003209999999999 69132230090011             12500000000000000U419821070219011   
AP209224999169230150090006 000027023   9000620190307$DIE YACHT                              090006909999999999 69230150090006             13600000000000000U419074400520406   
AP209224999169433150090002 000027029   9000220190307$BOOTE EXCLUSIV                         130012509999999999 69433150090002             13600000000000000U419849030990402   
AP209224999178039600090004 000027034   9000420190307$MOTORRADFAHRER                         120003909999999999 78039600090004             10300000000000000U419843450290304   
AP209224999520370890090307 000017289   9030720190307FATTO - QUOTIDIANO                      010001509999999999 20370890090307977203708900620000000000000000U977203708900690307
AP209224999120380060090052 000018858   9005220190307LIBRI DI WAR SET    I GENERALI DI HITLER130010909999999999 20380060090052977203800600210000000000000000U977203800600290052
AP209224999520372660090010 000018010   9001020190307INS SETTE CORR.SERA VENDITA ABB.OBBL.   010000509999999999 20372660090010977203726600120000000000000000U977203726600190010
AP209224999520372700090002 000018422   9000220190307QUIZ ERMETICI                           140002309999999999 20372700090002977203727000810000000000000000U977203727000890002
AP209224999169333390090004 000026642   9000420190307$REISEMOBIL INTERN.                     120005909999999999 69333390090004             10300000000000000U419191890450704   
AP209224999178033040090004 000019343   9000420190307$JOLIE POCKET                           120002909999999999 78033040090004             10000000000000000U419629220200304   
AP209224999169537470090002 000028208   9000220190307$PRINZ. LILLIFEE BASBASTELBOX           130005809999999999 69537470090002             10500000000000000U419779140420202   
AP209224999522409550090090 000026016   9009020190307DEVIL E CAVALIERI MADAREDEVIL           120003509999999999 22409550090090977224095500610500000000000000U977224095500690090
AP209224985069060600090307 000026206   9030720190307$EL PAIS                                010003009999999999 69060600013104842553600116120830000000000000U842553600116113104
AP209224993511111120090307 000027639   9030720190307PICCOLO GO ABBONATI                     010000009999999999 111111200                  20840000000000000U                  
AP209224999178039560090004 000027258   9000420190307$STEREO                                 120008459999999999 78039560090004             10320000000000000U419013740650204   
AP209224999169536000090001 000027079   9000120190307$BIKE SOND.FREERIDER                    140008709999999999 69536000090001             10000000000000000U419667550690201   
AP209224996000252150190307 000029654   9030720190307MANIFESTO           IL MANIFESTO - NORD 010001509999999999 00252150190307977002521500020800000000000000U977002521500090307
AP209224985069000370090306 000029664   9030620190307$THE DAILY TELEGRAPH                    010004509999999999 69000370090306             20800000000000000U977030712373310   
AP209224985069000370090304 000029664   9030420190305$THE DAILY TELEGRAPH                    010004509999999999 69000370090304             20800000000000000U977030712371910   
AP209224999720383620090647 000029324   9064720190307TROTTO & TURF                           020003509999999999 20383620090647977203836200920370000000000000U977203836200990647
AP209224993511111110090307 000029485   9030720190307PICCOLO TS ABBONATI                     010000009999999999 111111100                  20840000000000000U                  
AP209224999111245190090247 000029131   9024720190307ELABORARE                               120005509999999999 11245190090247977112451900610630000000000000U977112451900690247
AP209224993511111110390307 000026052   9030720190307INS MESS.VEN.GRATUITEVENTI NORDEST      010000009999999999 111111103                  20800000000000000U                  
AP209224985069102130090009 000029369   9000920190307$GRAZIA UK                              070004999999999999 69102130090009             10300000000000000U977174595607509   
AP209224985069102150090009 000029373   9000920190307$KERRANG! UK                            070005209999999999 69102150090009             10300000000000000U977026266218609   
AP209224985069102140090009 000029374   9000920190307$HEAT UK                                070003609999999999 69102140090009             10300000000000000U977146562608109   
AP209224985069230290090006 000030703   9000620190307$C' T MAGAZIN                           100006209999999999 69230290090006             10300000000000000U419914840490306   
AP209224999522821416590010 000031737   9001020190307CREDERE VOLUME      RADICI CRISTIANE N 7070007409999999999 22821416590010977228214165812310000000000000U977228214165890010
AP209224927100000010019009 000029451   1900920190307NOVI GLAS                               070001209999999999 00000010019009977112465900910300000000000000U977112465900919009
AP209224927000000010090307 000029453   9030720190307PRIMORSKI DNEVNIK                       010001309999999999 00000010090307977112466600720300000000000000U977112466600790307
AP209224999169130490090011 000026440   9001120190307$FRAU IM SPIEGEL                        070002509999999999 69130490090011             10050000000000000U419084840180311   
AP209224999169436240090011 000026441   9001120190307$ECHO DER FRAU                          070002509999999999 694362400     419011990179710050000000000000U4190119901797     
AP209224985069130690090010 000026449   9001020190307$ALLES FUER DIE FRAU                    070001409999999999 69130690090010             10300000000000000U419667600099710   
AP209224999720372900290055 000028223   9005520190307ESP.MAXIVISTA SUPPL.OCCHIALI DA LETTURA 130009999999999999 20372900290055977203729002010000000000000000U977203729002090055
AP209224993515929670490307 000027205   9030720190307CORRIERE DELLE ALPI                     010001209999999999 15929670490307977159296710120840000000000000U977159296710190307
AP209224985069021050090306 000028876   9030620190307$NEUE ZUERCHER ZEITU                    010004709999999999 69021050090306977229732200420000000000000000U977229732200490306
AP209224999169532330090002 000030071   9000220190307$HOMES & GARDENS SPE                    130007009999999999 69532330090002             13000000000000000U419447730500602   
AP209224985069021040090304 000033707   9030420190305$NEUE ZUERCHER Z.FOLNZZ FOLIO - PAARE   010006009999999999 69021040019052977142053101620830000000000000U977142053101619052
AP209224999522823130090066 000030481   9006620190307RAROPIU'            QUEEN               120007009999999999 22823130090066977228231300010300000000000000U977228231300090066
AP209224999522821410090010 000030356   9001020190307CREDERE                                 070001509999999999 22821410090010977228214100912310000000000000U977228214100990010
AP209224999018288040080053 000033503   8005320190307HOBBY SCIENZA TECNIC                    140003509999999999 18288040080053977182880400210000000000000000U977182880400280053
AP209224999169332380090004 000030484   9000420190307$DER HUND                               120004609999999999 69332380090004             10300000000000000U419110610330904   
AP209224999711240410190172 000035039   9017220190307MIO COMPUTER IDEA                       090001909999999999 11240410190172977112404101910320000000000000U977112404101990172
AP209224999511204410091003 000034126   9100320190307LINUS                                   120006009999999999 11204410091003977112044100430200000000000000U977112044100491003
AP209224999122824000090010 000030586   9001020190307GIALLO SETTIMANALE                      070000909999999999 22824000090010977228240000710310000000000000U977228240000790010
AP209224902600026730090307 000030381   9030720190307SCUOLE GAZZETTINO UD                    010000009999999999 000267300                  20800000000000000U                  
AP209224999500147093290010 000030875   9001020190307FAM.CRISTIANA STRAO FRANCESCO           140009909999999999 00147093290010977001470932910300000000000000U977001470932990010
AP209224999178046500090031 000033892   9003120190307$SPASS FUER KLEINE PGADGET              140005509999999999 78046500090031             10500000000000000U419858670399931   
AP209224999700330860090056 000030351   9005620190307PROGRESSO FOTOGRAFICSGUARDO DI DONNA    130008909999999999 00330860090056977003308600513400000000000000U977003308600590056
AP209224925200000010090307 000033436   9030720190307VOCE DEL POPOLO                         010001109999999999 000000100                  20800000000000000U                  
AP209224999500147090090010 000030173   9001020190307FAMIGLIA CRISTIANA                      070002009999999999 00147090090010977001470900812310000000000000U977001470900890010
AP209224999511230540090010 000030175   9001020190307GIORNALINO                              070002309999999999 11230540090010977112305400312310000000000000U977112305400390010
AP209224999500147096590010 000030180   9001020190307FAMIGLIA CRISTIANA VIL GRANDE LIBRO DEI 070008909999999999 00147096590010977001470965712310000000000000U977001470965790010
AP209224999178044810090003 000031659   9000320190307$REVUE HEUTE                            120001509999999999 78044810090003             10050000000000000U419853540110503   
AP209224999500000010090307 000029785   9030720190307FATTO ABBONATI                          010000009999999999 000000100                  20800000000000000U                  
AP209224999711285413190026 000034389   9002620190307MIO CANE SPECIALE                       170009909999999999 11285413190026977112854131710380000000000000U977112854131790026
AP209224999511204984390307 000033643   9030720190307CORRIERE SERA                           010001509999999999 11204984390307977112049800820800000000000000U977112049800890307
AP209224999722841620091911 000033673   9191120190307MIO PAPA                                070001409999999999 22841620091911977228416200210310000000000000U977228416200291911
AP209224999178043800090002 000031433   9000220190307$HAPPY WAY                              140008209999999999 78043800090002             10300000000000000U419844660590602   
AP209224999722819590090074 000029813   9007420190307UBUNTU FACILE                           120003509999999999 22819590090074977228195900110320000000000000U977228195900190074
AP209224999117247910090147 000030798   9014720190307MOTO.IT                                 120001509999999999 17247910090147977172479100010620000000000000U977172479100090147
AP209224999722824300090070 000031296   9007020190307DRAGONERO           LA TERRA DELLA NOTTE120003509999999999 22824300090070977228243000410500000000000000U977228243000490070
AP209224999117230810090101 000030554   9010120190307PUZZLE X TUTTI                          130001909999999999 17230810090101977172308100310340000000000000U977172308100390101
AP209224999178045220090004 000032210   9000420190307$HARPER'S BAZAR TED                     220008509999999999 78045220090004             10050000000000000U419856940700504   
AP209224985069301800090001 000034683   9000120190307$RAILWAY UPDATE                         120019609999999999 69301800090001             10300000000000000U977166190701401   
AP209224999715910420290307 000036393   9030720190307LIBERO NORD                             010001509999999999 15910420290307977159104200720800000000000000U977159104200790307
AP209224999722840060090031 000033508   9003120190307TOYS2 GIOCA E COLORAI MIEI CUCCIOLI - AL130003909999999999 22840060090031977228400600910500000000000000U977228400600990031
AP209224999522833500390003 000035363   9000320190307LIVING MENSILE                          120003909999999999 22833500390003977228335003510000000000000000U977228335003590003
AP209224999124210656574062 000037017   7406220190307*SCOPRIRE FILOSOFIA SCHILLER            070009999999999999 24210656574062977242106565430300000000000000U977242106565474062
AP209224999722840520890002 000037233   9000220190307SAIFAM MUSIC DEL.08 CD RADIO BIRIKINA 25130009909999999999 22840520890002977228405208210360000000000000U977228405208290002
AP209224999711227420090521 000036602   9052120190307MINIPUZZLE                              120001709999999999 11227420090521977112274200010340000000000000U977112274200090521
AP209224999723849240090009 000039127   9000920190307ORA                                     100001009999999999 23849240090009977238492400510310000000000000U977238492400590009
AP209224990111296225490307 000029941   9030720190307MESSAGGERO ROMA                         010001409999999999 11296225490307977112962254120800000000000000U977112962254190307
AP209224999524213830090017 000037929   9001720190307*MARVEL LEGENDS     CAPITAN AMERICA     070005999999999999 24213830090017977242138300010300000000000000U977242138300090017
AP209224999124649790662114 000039638   6211420190307*I LIKE UNCINETTO                       070005999999999999 24649790662114977246497906230350000000000000U977246497906262114
AP209224999781141230090307 000041652   9030720190307VERITA'                                 010001309999999999 81141230090307977811412300720800000000000000U977811412300790307
AP209224999178051530090004 000042211   9000420190307$LUST AUF MEHR                          120004309999999999 78051530090004             10050000000000000U419096010295404   
AP209224999178050850090011 000041103   9001120190307$BILD DER FRAU                          070001909999999999 78050850090011             10050000000000000U419061520140711   
AP209224999125318960090005 000042616   9000520190307COSI'                                   090001009999999999 25318960090005977253189600110310000000000000U977253189600190005
AP209224999518287161290307 000038986   9030720190307INS ORIGAMI STAMPA                      010001509999999999 18287161290307977182871612120300000000000000U977182871612190307
AP209224999524217036051158 000038911   5115820190307*MARVEL HEROES 3D                       100012999999999999 24217036051158977242170360010200000000000000U977242170360051158
AP209224985069102210090009 000040811   9000920190307$NEW SCIENTIST UK                       070006509999999999 69102210090009             10300000000000000U977026240728209   
AP209224999124996340090005 000042950   9000520190307IN FAMIGLIA                             070001009999999999 24996340090005977249963400410310000000000000U977249963400490005
AP209224985303901074190307 000040498   9030720190307REPUBBLICA                              010001509999999999 03901074190307977039010700920800000000000000U977039010700990307
AP209224985069131460090011 000040789   9001120190307$JUNGE FREIHEIT                         070005309999999999 69131460090011             10300000000000000U419414790480511   
AP209224985300008000090002 000040812   9000220190307LIMES               UNA STRATEGIA PER L'120015009999999999 00008000090002977112490400060070000000000000U977112490400090002
AP209224999020543730061127 000041394   6112720190307*GR.STORIE DC COMICSNIGHTWING           090013999999999999 20543730061127977205437300330100000000000000U977205437300361127
AP209224999524208853080013 000039460   8001320190307ESP.GIAQUINTO ED.VARBUSTA SORPRESA PRINC130002999999999999 24208853080013977242088530710300000000000000U977242088530780013
AP209224999524991300090019 000039916   9001920190307THE GOOD LIFE                           130007009999999999 24991300090019977249913000110300000000000000U977249913000190019
AP209224999781120744590035 000038746   9003520190307INS GIORNALE COMPIEGSOLO IL TEMPO LO DIR120009909999999999 81120744590035977811207445510470000000000000U977811207445590035
AP209224999781100320091902 000038797   9190220190307PANORAMA ICON DESIGNRILANCIO            120004509999999999 81100320091902977811003200610310000000000000U977811003200691902
AP209224999120389430090003 000042645   9000320190307STOP                                    070001909999999999 20389430090003977203894300010310000000000000U977203894300090003
AP209224999025326470090001 000045955   9000120190307ESP.OFFICINA RAGAZZIORIGAMIX-50 TRIANGOL130002999999999999 25326470090001977253264700810590000000000000U977253264700890001
AP209224999724652240090010 000039522   9001020190307MIO                                     070001709999999999 24652240090010977246522400010310000000000000U977246522400090010
AP209224999178053190090001 000046178   9000120190307$LISA SONDERHEFT                        230002409999999999 78053190090001             10050000000000000U419143650199801   
AP209224985069803230090019 000046293   9001920190307$THE GENTLEWOMAN                        160009999999999999 69803230090019             10300000000000000U977187986903619   
AP209224999718286700090002 000044644   9000220190307VIP MESE                                120001009999999999 18286700090002977182867000310310000000000000U977182867000390002
AP209224999511204980090307 000043898   9030720190307CORR.SERA PN/TV                         010001509999999999 11204980090307977112049800820800000000000000U977112049800890307
AP209224999178052880090001 000045253   9000120190307$BILD DER FRAU NATUE                    220003109999999999 78052880090001             10050000000000000U419133030230101   
AP209224999519743376083051 000046360   8305120190307*SCENEGGIATI RAI TV                     100010999999999999 19743376083051977197433760730200000000000000U977197433760783051
AP209224999525331066071034 000045832   7103420190307*SUPERCARS                              100014999999999999 25331066071034977253310660330200000000000000U977253310660371034
AP209224988322222220090307 000043121   9030720190307GAZZETTINO BL ABBONA                    010000009999999999 222222200                  20840000000000000U                  
AP209224985069601300090004 000045130   9000420190307$COUNTRY LIVING UK                      120007509999999999 69601300090004             10300000000000000U72527472691204    
AP209224993522222220090307 000043032   9030720190307CORRIERE ALPI ABBONA                    010000009999999999 222222200                  20840000000000000U                  
AP209224999122796841090010 000039768   9001020190307SETTIMANALE NUOVO +CNUOVO CUCINA        070001509999999999 22796841090010977227968410650310000000000000U977227968410690010
AP209224999124651190671079 000044785   7107920190307*I LIKE MAGLIA      CALO EDITORIALE     070005999999999999 24651190671079977246511906130350000000000000U977246511906171079
AP209224999524213839090017 000046299   9001720190307*MARVEL LEGENDS CA. CAPITAN AMERICA     100005999999999999 242138390                  10300000000000000U                  
AP209224999125320510090012 000043104   9001220190307DIMENSIONE CIELO    BOMBARDIERI D.REGIA 130012009999999999 25320510090012977253205100314600000000000000U977253205100390012
AP209224902601234567890010 000044653   9001020190307MODULI VANITY FAIR                      070000009999999999 012345678                  10000000000000000U                  
AP209224999511204983590307 000043235   9030720190307CORR.SERA TN                            010001509999999999 112049835                  20800000000000000U                  
AP209224985069601290090004 000045111   9000420190307$COSMOPOLITAN UK                        120004999999999999 69601290090004             10300000000000000U07447077562104    
AP209224999711248830190307 000043867   9030720190307GIORNALE ABBONATI                       010000009999999999 112488301                  20800000000000000U                  
AP209224902600026740090307 000043296   9030720190307SCUOLE GIORNO                           010000009999999999 000267400                  20800000000000000U                  
AP209224991525313260890307 000043404   9030720190307CORRIERE SPORT                          010001509999999999 25313260890307977253132640920800000000000000U977253132640990307
AP209224999519710893290018 000046119   9001820190307+CARDGAME WANTED-VARBOOSTER 2 BUSTINE   130009009999999999 19710893290018977197108932510300000000000000U977197108932590018
AP209224991525313261490307 000043405   9030720190307STADIO VERDE                            010001509999999999 25313261490307977253132643020800000000000000U977253132643090307
AP209224999524217039051158 000043427   5115820190307*MARVEL HEROES C.A.                     070012999999999999 242170390                  30200000000000000U                  
AP209224985069600050090004 000040801   9000420190307$COUNTRY HOMES & INT                    120007509999999999 69600050090004             10300000000000000U977095130127304   
AP209224999711204440090011 000045909   9001120190307NOVELLA                                 070001509999999999 11204440090011977112044400510310000000000000U977112044400590011
AP209224999711240419990172 000043375   9017220190307MIO COMP.IDEA GDO                       090001909999999999 11240419990172977112404199610320000000000000U977112404199690172
AP209224929500000010090307 000043877   9030720190307POPOLO DI PORDENONE NUMERO 10           070001309999999999 00000010090223900397401363310000000000000000U900397401363390223
AP209224993500294890090307 000043883   9030720190307MESS.VEN.PN ABBONATI                    010000009999999999 002948900                  20840000000000000U                  
AP209224993500179950090307 000043884   9030720190307NUOVA VENEZIA ABBONA                    010000009999999999 001799500                  20840000000000000U                  
AP209224988300291510090307 000043885   9030720190307GAZZETTINO PN ABBONA                    010000009999999999 002915100                  20840000000000000U                  
AP209224999500202430090307 000043886   9030720190307COR.SERA VENETO ABBO                    010000009999999999 002024300                  20840000000000000U                  
AP209224999500126340090307 000043887   9030720190307COR.SERA PN ABBONATI                    010000009999999999 001263400                  20840000000000000U                  
AP209224999024216180093009 000042628   9300920190307*CAFFE' FILOSOFICO  NEWTON              070009999999999999 24216180093009977242161800310100000000000000U977242161800393009
AP209224902600026770090307 000049288   9030720190307SCUOLE CORR.SERA TN                     010000009999999999 000267700                  20000000000000000U                  
AP209224902600026780090307 000049289   9030720190307SCUOLE CORR.SERA VE                     010000009999999999 000267800                  20000000000000000U                  
AP209224999168091400090080 000049315   9008020190307$HOME FRANCESE                          130007109999999999 68091400090080378194200650910760000000000000U378194200650900800
AP209224902600026760090307 000045680   9030720190307SCUOLE CORR.SERA PN                     010000009999999999 000267600                  20000000000000000U                  
AP209224999781220514590025 000048791   9002520190307*GRANDI COLLEZIONI  GIP NEL TELEVISORE E070007909999999999 81220514590025977812205145310090000000000000U977812205145390025
AP209224999126116666581024 000048836   8102420190307*DONNE STRAORDINARIEAGATHA CHRISTIE     070006999999999999 26116666581024977261166665410470000000000000U977261166665481024
AP209224988311206044890307 000049488   9030720190307GAZZETTINO RO                           010001209999999999 11206044890307977112060448520000000000000000U977112060448590307
AP209224999711227429990521 000046570   9052120190307MINIPUZZLE GDO                          120001709999999999 11227429990521977112274299410340000000000000U977112274299490521
AP209224999168087250090096 000048997   9009620190307$YOUNGTIMERS                            120003999999999999 68087250090096378189090399810300000000000000U378189090399800960
AP209224999168041010090006 000049262   9000620190307$ART NEWSPAPER FRANC                    120008909999999999 68041010090006378189070790912200000000000000U378189070790900060
AP209224999023986460081031 000045750   8103120190307*RALLY DI MONTECARLOMITSUBISHI LANCER EV090015999999999999 23986460081031977239864600930100000000000000U977239864600981031
AP209224999725317670190059 000045863   9005920190307*MITOLOGIA2         LE MURA DI TROIA    070009999999999999 25317670190059977253176701114100000000000000U977253176701190059
AP209224999725317670190056 000045863   9005620190214*MITOLOGIA2         IL NOBILE RE PELEO  070009999999999999 253176701     977253176701114100000000000000U977253176701190056
AP209224999168066360090158 000049630   9015820190307$TAMIYA MODEL MAG FR                    130008409999999999 68066360090158378156960745510760000000000000U378156960745501580
AP209224985069052000090307 000049640   9030720190307$AL QUDS                                010002009999999999 69052000090307977135833704920830000000000000U977135833704990307
AP209224985069014000090306 000049666   9030620190307$LES ECHOS                              010004309999999999 69014000090306378001040280920830000000000000U378001040280990306
AP209224999168050580090592 000048256   9059220190307$FANA DE L'AVIATION                     120008309999999999 68050580090592378198530730410760000000000000U378198530730405926
AP209224999781220534590021 000049019   9002120190307*STURMTRUPPEN ED.KOLSTURMTRUPPEN A COLOR120006909999999999 81220534590021977812205345710500000000000000U977812205345790021
AP209224932200000010090307 000049656   9030720190307VOCE DI ROVIGO                          010001209999999999 00000010090307977182453940320800000000000000U977182453940390307
AP209224985069000050090306 000049681   9030620190307$NEW YORK TIMES USA                     010008309999999999 69000050090306419858200350520830000000000000U419858200350590306
AP209224999525315601690011 000049739   9001120190307INS PROTAGONISTI STOCARLO V             070008909999999999 25315601690011977253156016210300000000000000U977253156016290011
AP209224999724213980390007 000049744   9000720190307*FILOSOFIA3         MACHIAVELLI         070009999999999999 24213980390007977242139803510000000000000000U977242139803590007
AP209224999720391151290007 000049745   9000720190307*MONDO MATEMATICO4  DILEMMA DEL PRIGIONI090009999999999999 20391151290007977203911512310100000000000000U977203911512390007
AP209224999178055000090004 000049747   9000420190307$ZUHAUSE WOHNEN                         120005609999999999 78055000090004             10300000000000000U419049360395904   
AP209224999126119816591010 000049759   9101020190307*MITOLOGIA X BAMBINIIL VOLO DI ICARO    070006999999999999 26119816591010977261198165830300000000000000U977261198165891010
AP209224999519700150492009 000049770   9200920190307*LETTERATURA ITALIAN                    100012999999999999 19700150492009977197001504210200000000000000U977197001504292009
AP209224999526115116091009 000049771   9100920190307*FERRARI F40                            100011999999999999 26115116091009977261151160230200000000000000U977261151160291009
AP209224988344444440090307 000049807   9030720190307GAZZETTINO VE ABBONA                    010000009999999999 444444400                  20840000000000000U                  
AP209224985069803210090015 000046594   9001520190307$SSAW                                   160017009999999999 69803210090015             10300000000000000U977224228000715   
AP209224999168000200090306 000049588   9030620190307$ASHARQ AL-AWSAT                        010003009999999999 68000200090306977131908136310830000000000000U977131908136390306
AP209224999168095020090009 000049613   9000920190307$PETITS MONTESSORI                      140006999999999999 68095020090009378142220699310760000000000000U378142220699300095
AP209224999168090620090041 000048950   9004120190307$DIGITAL PHOTO FRANC                    130007509999999999 68090620090041378154820690710760000000000000U378154820690700416
AP209224999168056410090586 000048953   9058620190307$AMINA                                  120003209999999999 68056410090586378145850270010760000000000000U378145850270005860
AP209224999168000310090306 000047426   9030620190307$TIMES                                  010004509999999999 68000310090306977174249863920830000000000000U977174249863990306
AP209224999168000310090305 000047426   9030520190306$TIMES                                  010004509999999999 68000310090305             20830000000000000U977174249862210   
AP209224999168000310090304 000047426   9030420190305$TIMES                                  010004509999999999 68000310090304             20830000000000000U977174249861510   
AP209224909515929663190307 000047474   9030720190307TRENTINO                                010001309999999999 15929663190307977159296631920000000000000000U977159296631990307
AP209224909500001020090307 000047476   9030720190307TRENTINO ABB.                           010000009999999999 000010200                  20000000000000000U                  
AP209224999168000160090307 000047482   9030720190307$FINANCIAL TIMES                        010003609999999999 68000160090307             20830000000000000U977017473614210   
AP209224999168000160090306 000047482   9030620190306$FINANCIAL TIMES                        010003609999999999 68000160090306             20830000000000000U977017473613510   
AP209224998700414444190002 000050148   9000220190307INS ALLIANZ STADIUM                     210009999999999999 00414444190002977004144441570800000000000000U977004144441590002
AP209224999781222244590011 000049764   9001120190307MUSSOLINI E IL FASCI11? VOL. MUSSOLINI  070009999999999999 81222244590011977812222445114100000000000000U977812222445190011
AP209224999519710893490018 000048288   9001820190307+CARDGAME WANTED-VARBOOSTER 2 BUSTINE   120009009999999999 19710893490018977197108934910300000000000000U977197108934990018
AP209224999168094250090020 000048304   9002020190307$GARCON MAGAZINE                        130006509999999999 68094250090020378168490599310350000000000000U378168490599300200
AP209224999168004590090810 000047704   9081020190307$MODELE MAGAZINE                        120008109999999999 68004590090810378198610720010760000000000000U378198610720008106
AP209224999168093990090010 000047706   9001020190307$SOLDAT                                 130014959999999999 68093990090010378120061400214900000000000000U378120061400200100
AP209224999168094850090008 000047708   9000820190307$LADY FRANCESE                          140004509999999999 68094850090008378127770350010310000000000000U378127770350000080
AP209224999726114630090003 000049219   9000320190307FORTUNE                                 120003909999999999 26114630090003977261146300010070000000000000U977261146300090003
AP209224999526114190090010 000047066   9001020190307MARIA CON TE                            070001009999999999 26114190090010977261141900710300000000000000U977261141900790010
AP209224999525331069071034 000046022   7103420190307*SUPERCARS C.A.                         100014999999999999 25331069071034977253310690030200000000000000U977253310690071034
AP209224999520370214890029 000048606   9002920190307INS ALBI AVVENTURA  EPOXY               070004999999999999 20370214890029977203702148810300000000000000U977203702148890029
AP209224999723851730390025 000048608   9002520190307*MIA PRIMA BIBBIA 4 IL PROFETA ELISEO   090004999999999999 23851730390025977238517303714300000000000000U977238517303790025
AP209224998700414445790010 000049161   9001020190307INS OLIVER HUTTON MA                    210009999999999999 00414445790010977004144457670800000000000000U977004144457690010
AP209224999126117150090033 000048327   9003320190307SETT.ENIGM.I SUDOKU                     070001009999999999 26117150090033977261171500010340000000000000U977261171500090033
AP209224999526116816081028 000048596   8102820190307*SEGRETO PIETRE                         100007999999999999 26116816081028977261168160230200000000000000U977261168160281028
AP209224999178054680090003 000049033   9000320190307$GALUPY             GADGET              130005509999999999 78054680090003             10510000000000000U419143880399103   
AP209224999168069400090098 000049205   9009820190307$FERROVISSIME                           130010509999999999 68069400090098378173050950210760000000000000U378173050950200980
AP209224999168071680090043 000048117   9004320190307$OCTANE                                 130007909999999999 68071680090043378162140690310760000000000000U378162140690300430
AP209224985069702360090027 000048685   9002720190307$MILK DECORATION UK                     140007509999999999 69702360090027378049430650110300000000000000U378049430650100270
AP209224999178054450090004 000048697   9000420190307$FREIZEIT EXCLUSIV                      120001409999999999 78054450090004             10050000000000000U419799200110104   
AP209224999168069880090117 000048741   9011720190307$MAISONS DE CAMPAGNE                    130005709999999999 68069880090117378151910450810760000000000000U378151910450801170
AP209224999168052530190052 000048742   9005220190307$ID ART DE VIVRE TER                    140007959999999999 68052530190052378140400695513900000000000000U378140400695500520
AP209224999168045300090353 000047565   9035320190307$RETROVISEUR                            120006409999999999 68045300090353378148280595210760000000000000U378148280595203530
AP209224999168094860090019 000047568   9001920190307$MON ROBOT & MOI                        130007809999999999 68094860090019378133160699012900000000000000U378133160699000190
AP209224999168043110091903 000047569   9190320190307$KARATE BUSHIDO                         120007009999999999 68043110019030378176890650210760000000000000U378176890650219030
AP209224999168070250090245 000047570   9024520190307$ANTIQUITES BROCANTE                    120006009999999999 68070250090245378145760510510760000000000000U378145760510502450
AP209224999168004230090473 000047574   9047320190307$LIRE                                   120007509999999999 68004230090473378198170690310760000000000000U378198170690304736
AP209224999168091130090024 000048246   9002420190307$PSYCHOLOGIE POSITIV                    130006909999999999 68091130090024378127080595910760000000000000U378127080595900240
AP209224999526114806084030 000048424   8403020190307*VESPA 2018                             100012999999999999 26114806084030977261148060110200000000000000U977261148060184030
AP209224999781190481090011 000045997   9001120190307VISTO TV BANDED     VISTO TV + NOVELLA  070002509999999999 81190481090011977811904810710090000000000000U977811904810790011
AP209224999025321180090002 000046419   9000220190307ESP.SUP.KREATIVITY  ORIGAMIX-25 TRIANGOL130001009999999999 25321180090002977253211800310590000000000000U977253211800390002
AP209224999526110786081036 000046420   8103620190307*TEX 3D COLLECTION                      100012999999999999 26110786081036977261107860010200000000000000U977261107860081036
AP209224985069232010090005 000047775   9000520190307$BACCARA                                100002909999999999 69232010090005             10300000000000000U419816150280105   
AP209224999168040120090714 000047648   9071420190307$JAZZ MAGAZINE                          120007909999999999 68040120090714378110920690210760000000000000U378110920690207140
AP209224999168050900090343 000047656   9034320190307$TOP SANTE PF                           120003509999999999 68050900090343378159120270310760000000000000U378159120270303430
AP209224999168044940090468 000047668   9046820190307$BIBA PF                                120003509999999999 68044940090468378166070190810760000000000000U378166070190804680
AP209224999168091410090024 000048111   9002420190307$TOPGEAR MAGAZINE                       130006909999999999 68091410090024378123430590710760000000000000U378123430590700240
AP209224999526116819081028 000048817   8102820190307*SEGRETO PIETRE CA                      070007999999999999 261168190                  30200000000000000U                  
AP209224999526114809084030 000048632   8403020190307*VESPA 2018 CA                          100012999999999999 261148090                  30200000000000000U                  
AP209224985069200020090009 000047175   9000920190307$BEST UK                                070002859999999999 69200020090009             10300000000000000U977095489525009   
AP209224999126121230090001 000050247   9000120190307ENIGMIST.D.PICCOLI  YO YO               130004509999999999 26121230090001977261212300210590000000000000U977261212300290001
AP209224999024650613190001 000050248   9000120190307ESP.TOYSONE SPEC.STASPRINX              130002509999999999 24650613190001977246506131510590000000000000U977246506131590001
AP209224999518280509290008 000049984   9000820190307INS STORIA JAZZ CA  LA NASCITA DELLE GRA070009909999999999 182805092                  10300000000000000U                  
AP209224999526117090790004 000050040   9000420190307+CARDGAMER-MAGAZINE-YU-GI-OH SPEED DUEL 120013909999999999 26117090790004977261170907810300000000000000U977261170907890004
AP209224999726121750090001 000050249   9000120190307RICETTE DIMENTICATE                     130006909999999999 26121750090001977261217500113500000000000000U977261217500190001
AP209224999178051850090001 000050250   9000120190307$FREIZEIT REVUE SH O                    220002409999999999 78051850090001             10050000000000000U419106130195601   
AP209224999178053890090004 000050252   9000420190307$FRAU IM SPIEGEL ROY                    120005009999999999 78053890090004             10050000000000000U419233410360404   
AP209224999178055330090001 000050253   9000120190307$OPTIMUM VELO                           130013509999999999 78055330090001378170551290210300000000000000U378170551290200010
AP209224993500114240090307 000049948   9030720190307TRIBUNA TV ABB.                         010000009999999999 001142400                  20840000000000000U                  
AP209224999518280504990008 000049868   9000820190307INS STORIA JAZZ CORRLA NASCITA DELLE GRA070009909999999999 18280504990008977182805049210300000000000000U977182805049290008
AP209224999781222414590008 000049956   9000820190307CHE STORIA!         IL NAUFRAGIO DEL TIT070004999999999999 81222414590008977812224145814100000000000000U977812224145890008
AP209224999521205068090025 000049835   9002520190307*GO NAGAI C.G.                          070012999999999999 212050680                  10300000000000000U                  
AP209224999526119690091006 000049961   9100620190307*BORGHI D'EUROPA CA.                    070009999999999999 261196900                  30200000000000000U                  
AP209224999168095510090016 000049847   9001620190307$HEALTHY FOOD                           140005959999999999 68095510090016378143800495812900000000000000U378143800495800160
AP209224999526120666091004 000049949   9100420190307*FERRARI RACING 2019                    100015999999999999 26120666091004977261206660630200000000000000U977261206660691004
AP209224999026120680091004 000049950   9100420190307*SOUL MUSIC         LITTLE STEVIE WONDER090016999999999999 26120680091004977261206800630140000000000000U977261206800691004
AP209224999026112724090001 000050246   9000120190307ESP.KEY RING VERS.2 BIMBUMBAM - POP STAR140004999999999999 26112724090001977261127240410590000000000000U977261127240490001
AP209224999519700153492009 000050001   9200920190307*LETTERATURA IT.CA                      100012999999999999 197001534                  30200000000000000U                  
AP209224999178055210090279 000050064   9027920190307$MARIE FRANCE                           120005309999999999 78055210090279378158280220210050000000000000U378158280220202790
AP209224999511204983490307 000049866   9030720190307CORR.SERA RO                            010001509999999999 11204983490307977112049800820000000000000000U977112049800890307
AP209224999524210900494002 000050173   9400220190307*MY LITTLE TOWN RIL.                    100002999999999999 24210900494002977242109004530200000000000000U977242109004594002
AP209224999526121166091002 000050169   9100220190307*DODGE FAST & FURIOU                    070004999999999999 26121166091002977261211660830200000000000000U977261211660891002
