006500000065GRIGOLETTO ENRICO                                 0110201401012014010120140
008000000080MARLENE SAS DI BAZZOLO MARCO E                    0110201401022014010120141
020600000206TONIATO ETTORE                                    0110201401012014010120140
